:02000000F52FDA
:100A020083120313A501080083120313A501A50A8B
:100A1200080083120313A501A301A401C0308600BC
:100A220008001A250A25CA257E2545256125142D8B
:100A320000288B170730831203139F00E0308316C0
:100A4200031385008601811281110730F0007008BE
:100A520081040800F2007203031D302D312D342D64
:100A6200F101F10A432D02307206031D392D3A2D90
:100A72003F2D0230F0007008F100432D0430F000E9
:100A82007008F10071080800F2004D2D0A25602D52
:100A92000125602D0525602D7208F000F101710815
:100AA200003A0319552D602D7008013A0319472D9C
:100AB200033A0319492D013A03194B2D602D080001
:100AC2008312031325080319672D682D7D2DEA3043
:100AD2002402613003192302031C702D712D772D1E
:100AE2006030A302EA30031CA403A4021030A3075F
:100AF2000318A40A0030A4070800FA010130A22555
:100B0200003A031D852D862D892DFA01FA0AA02DA2
:100B12000230A225003A031D8F2D902D952D023013
:100B2200F9007908FA00A02D0330A225003A031D2E
:100B32009B2D9C2DA02D0330F9007908FA007A082C
:100B42000800F400F60174082B25F3007308F50081
:100B5200F701F80183120313050875050319B22D75
:100B6200B32DB52DF601F60A0130F7070318F80A7E
:100B72000030F8077808803AFF0081307F02031DB9
:100B8200C42D81307702031CC72DC82DAB2D7608EA
:100B920008008126831203132008312783120313CE
:100BA2000514C73083120313AB00D72DAB0BD62D20
:100BB200DA2D000083120313051021083127831256
:100BC200031385148613C73083120313AB00E92D78
:100BD200AB0BE82DEC2D0000831203138510861752
:100BE20022083127831203130515C730831203131A
:100BF200AB00FB2DAB0BFA2DFE2D0000831203136D
:100C020005110800780879040319082E092E382ED8
:100C1200FD01FD0A172E01300310F80DF90DFF3EFC
:100C2200031D0D2E0130FC007C08FD07F91F1A2E52
:100C32001B2E0C2E79087B02031D212E78087A02C6
:100C4200031C242E252E2B2E7808FA027908031C69
:100C5200FB03FB0201300310F90CF80CFF3E031DED
:100C62002C2E0130FD02031D372E382E1B2E7B0841
:100C7200F9007A08F8000800F501F601700871041D
:100C82000319442E452E7C2EF701F70A532E01300C
:100C92000310F00DF10DFF3E031D492E0130F4004B
:100CA2007408F707F11F562E572E482E01300310F5
:100CB200F50DF60DFF3E031D582E71087302031D3C
:100CC200642E70087202031C672E682E6F2E700845
:100CD200F2027108031CF303F302751401300310CE
:100CE200F10CF00CFF3E031D702E0130F702031DC4
:100CF2007B2E7C2E572E7608F1007508F000080036
:100D02000A30F8000030F9006430F0000030F100E1
:100D1200831203132408F3002308F2003D2671080E
:100D2200FB007008FA000326780883120313A70059
:100D32002708A0003C30F8000030F900E830F0004D
:100D42000330F1002408F3002308F2003D26710865
:100D5200FB007008FA000326780883120313A70029
:100D62002708AA000A30F0000030F1002A08A70084
:100D7200A8012708F2002808F300D8267008831279
:100D82000313A9002908A1000A30F0000030F10085
:100D92002A08A700A8012708F2002808F3008E27D6
:100DA200700883120313A9002908A2000800F601A3
:100DB200F31FDC2EDD2EE42EF209F309F20A0319E9
:100DC200F30AF601F60AF11FE72EE82EED2EF009DE
:100DD200F109F00A0319F10A700871040319F22EDD
:100DE200F32E222FF501F50A012F01300310F00D29
:100DF200F10DFF3E031DF72E0130F4007408F507D4
:100E0200F11F042F052FF62E71087302031D0B2FFD
:100E120070087202031C0E2F0F2F152F7008F2029A
:100E22007108031CF303F30201300310F10CF00C00
:100E3200FF3E031D162F0130F502031D212F222F25
:100E4200052F76080319262F272F2C2FF209F309D5
:100E5200F20A0319F30A7308F1007208F00008009D
:100E6200F200652FC0308312031386008D2FF930F4
:100E72008312031386008D2FA4308312031386007E
:100E82008D2FB0308312031386008D2F9930831279
:100E9200031386008D2F92308312031386008D2F49
:100EA20082308312031386008D2FF83083120313CE
:100EB20086008D2F80308312031386008D2F903091
:100EC2008312031386008D2F7208F000F10171085E
:100ED200003A03196D2F8D2F7008003A0319332F32
:100EE200013A0319382F033A03193D2F013A031926
:100EF200422F073A0319472F013A03194C2F033A9D
:100F02000319512F013A0319562F0F3A03195B2F78
:100F1200013A0319602F8D2F0800F601F11F922F5D
:100F2200932F9A2FF009F109F00A0319F10AF60139
:100F3200F60AF31F9D2F9E2FA72FF209F309F20A3B
:100F42000319F30A0130F4007408F606F701F801F8
:100F5200700871040319AE2FAF2FE62FF501F50AC1
:100F6200BD2F01300310F00DF10DFF3E031DB32F15
:100F72000130F4007408F507F11FC02FC12FB22F02
:100F820001300310F70DF80DFF3E031DC22F71084B
:100F92007302031DCE2F70087202031CD12FD22FB1
:100FA200D92F7008F2027108031CF303F3027714BD
:100FB20001300310F10CF00CFF3E031DDA2F01305B
:100FC200F502031DE52FE62FC12F76080319EA2F3C
:100FD200EB2FF02FF709F809F70A0319F80A780836
:100FE200F1007708F000080083120313A001A101A9
:0E0FF200A201A301A401A501A6018301122DF5
:02400E00183F59
:00000001FF
