:020000040000FA
:02000000F52FDA
:100B940083120313A501080083120313A501A50AF8
:100BA400080083120313A501C03086000800E12564
:100BB400D3255326C426F2250E26DB2D00288B17B9
:100BC4000730831203139F00E0308316031385005C
:100BD4008601811281110730F00070088104080039
:100BE400F200FA2DD3250D2ECA250D2ECE250D2E5D
:100BF4007208F000F1017108003A0319022E0D2E5B
:100C04007008013A0319F42D033A0319F62D013A39
:100C14000319F82D0D2E0800831203132508031958
:100C2400142E152E2A2EEA302402613003192302D1
:100C3400031C1D2E1E2E242E6030A302EA30031C3A
:100C4400A403A4020130A3070318A40A0030A407D4
:100C54000800F000F101F201352E0130F10703180C
:100C6400F20A0030F2077208803AFF0081307F02F6
:100C7400031D3E2E903071020318412E422E472E42
:100C840070080319462E472E2F2E90307106031D2F
:100C94004F2E7203031D4F2E512E0130522E003061
:100CA400080047278312031320089827831203138D
:100CB4000514C73083120313AA00602EAA0B5F2EFB
:100CC400632E000083120313051021089827831252
:100CD40003138514C73083120313AA00712EAA0BC1
:100CE400702E742E00008312031385102208982797
:100CF400831203130515C73083120313AA00822E2F
:100D0400AA0B812E852E00008312031305110800FF
:100D14007808790403198F2E902EBF2EFD01FD0A49
:100D24009E2E01300310F80DF90DFF3E031D942E85
:100D34000130FC007C08FD07F91FA12EA22E932E82
:100D440079087B02031DA82E78087A02031CAB2EB7
:100D5400AC2EB22E7808FA027908031CFB03FB02BE
:100D640001300310F90CF80CFF3E031DB32E0130C3
:100D7400FD02031DBE2EBF2EA22E7B08F9007A08A9
:100D8400F8000800F40183120313851BCA2ECB2E2E
:100D9400D72E050D050D01392B26003A031DD32E40
:100DA400D42ED72EF401F40A012F83120313051B4A
:100DB400DC2EDD2EED2E050EF300F30C730C013941
:100DC4002B26003A031DE72EE82EED2E0230F30009
:100DD4007308F400012F83120313851AF22EF32EE5
:100DE400012F050EF300730C01392B26003A031D65
:100DF400FC2EFD2E012F0330F3007308F400740859
:100E04000800F501F6017008710403190A2F0B2F6D
:100E1400422FF701F70A192F01300310F00DF10DDD
:100E2400FF3E031D0F2F0130F4007408F707F11F74
:100E34001C2F1D2F0E2F01300310F50DF60DFF3E54
:100E4400031D1E2F71087302031D2A2F70087202DE
:100E5400031C2D2F2E2F352F7008F2027108031C4E
:100E6400F303F302751401300310F10CF00CFF3E90
:100E7400031D362F0130F702031D412F422F1D2F72
:100E84007608F1007508F00008000A30F800003018
:100E9400F9006430F0000030F100831203132408D9
:100EA400F3002308F20003277108FB007008FA001E
:100EB4008A26780883120313A7002708A0003C3071
:100EC400F8000030F900E830F0000330F1002408A5
:100ED400F3002308F20003277108FB007008FA00EE
:100EE4008A26790883120313A9007808A8000A3017
:100EF400F8000030F9002908FB002808FA008A26C7
:100F0400780883120313A7002708A1000A30F00011
:100F14000030F1002908F3002808F20003277008C4
:100F240083120313A7002708A2000800F200CC2FA5
:100F3400C030831203138600F42FF9308312031395
:100F44008600F42FA430831203138600F42FB030EC
:100F5400831203138600F42F99308312031386003F
:100F6400F42F9230831203138600F42F82308312FD
:100F740003138600F42FF830831203138600F42F32
:100F84008030831203138600F42F903083120313EE
:100F94008600F42F7208F000F1017108003A031979
:100FA400D42FF42F7008003A03199A2F013A031929
:100FB4009F2F033A0319A42F013A0319A92F073AC3
:100FC4000319AE2F013A0319B32F033A0319B82FAB
:100FD400013A0319BD2F0F3A0319C22F013A03191D
:100FE400C72FF42F080083120313A001A101A2014B
:0C0FF400A301A401A501A6018301D92DD1
:02400E00183F59
:00000001FF
