:020000040000FA
:02000000F52FDA
:100A100083120313A501080083120313A501A50A7D
:100A2000080083120313A501A301A401C0308600AE
:100A30000800212511258B25FE2532254E251B2D4D
:100A400000288B170730831203139F00E0308316B2
:100A5000031385008601811281110730F0007008B0
:100A600081040800F2003A2D11254D2D08254D2D49
:100A70000C254D2D7208F000F1017108003A0319A0
:100A8000422D4D2D7008013A0319342D033A0319F4
:100A9000362D013A0319382D4D2D0800831203130A
:100AA00025080319542D552D6A2DEA302402613092
:100AB00003192302031C5D2D5E2D642D6030A302FB
:100AC000EA30031CA403A4021030A3070318A40AED
:100AD0000030A4070800F000F101F201F3017008F2
:100AE0000319732D742D762DF101F10A0130F207EF
:100AF0000318F30A0030F3077308803AFF008130CF
:100B00007F02031D852D81307202031C882D892DE3
:100B10006F2D7108080081268312031320083127E6
:100B2000831203130514C73083120313AB00982DEF
:100B3000AB0B972D9B2D000083120313051021088A
:100B400031278312031385148613C73083120313CE
:100B5000AB00AA2DAB0BA92DAD2D00008312031302
:100B60008510861722083127831203130515C73015
:100B700083120313AB00BC2DAB0BBB2DBF2D0000AC
:100B80008312031305110800780879040319C92D8D
:100B9000CA2DF92DFD01FD0AD82D01300310F80DE5
:100BA000F90DFF3E031DCE2D0130FC007C08FD0732
:100BB000F91FDB2DDC2DCD2D79087B02031DE22DE5
:100BC00078087A02031CE52DE62DEC2D7808FA0250
:100BD0007908031CFB03FB0201300310F90CF80C2D
:100BE000FF3E031DED2D0130FD02031DF82DF92DF3
:100BF000DC2D7B08F9007A08F8000800F501831263
:100C00000313851B042E052E112E050D050D01392C
:100C10006B25003A031D0D2E0E2E112EF501F50A3F
:100C20003B2E83120313051B162E172E272E050E9F
:100C3000F400F40C740C01396B25003A031D212ECD
:100C4000222E272E0230F4007408F5003B2E83126A
:100C50000313851A2C2E2D2E3B2E050EF400740C3A
:100C600001396B25003A031D362E372E3B2E0330FB
:100C7000F4007408F50075080800F501F601700825
:100C800071040319442E452E7C2EF701F70A532ECA
:100C900001300310F00DF10DFF3E031D492E013010
:100CA000F4007408F707F11F562E572E482E013016
:100CB0000310F50DF60DFF3E031D582E710873024B
:100CC000031D642E70087202031C672E682E6F2E9F
:100CD0007008F2027108031CF303F302751401306B
:100CE0000310F10CF00CFF3E031D702E0130F702D3
:100CF000031D7B2E7C2E572E7608F1007508F00020
:100D000008000A30F8000030F9006430F0000030CC
:100D1000F100831203132408F3002308F2003D2698
:100D20007108FB007008FA00C425780883120313C9
:100D3000A7002708A0003C30F8000030F900E83098
:100D4000F0000330F1002408F3002308F2003D26F0
:100D50007108FB007008FA00C42578088312031399
:100D6000A7002708AA000A30F0000030F1002A0886
:100D7000A700A8012708F2002808F300D826700869
:100D800083120313A9002908A1000A30F0000030E3
:100D9000F1002A08A700A8012708F2002808F3009C
:100DA0008E27700883120313A9002908A2000800E7
:100DB000F601F31FDC2EDD2EE42EF209F309F20A10
:100DC0000319F30AF601F60AF11FE72EE82EED2EBD
:100DD000F009F109F00A0319F10A70087104031906
:100DE000F22EF32E222FF501F50A012F0130031008
:100DF000F00DF10DFF3E031DF72E0130F4007408D5
:100E0000F507F11F042F052FF62E71087302031D3D
:100E10000B2F70087202031C0E2F0F2F152F700856
:100E2000F2027108031CF303F30201300310F10C0A
:100E3000F00CFF3E031D162F0130F502031D212F7C
:100E4000222F052F76080319262F272F2C2FF20982
:100E5000F309F20A0319F30A7308F1007208F000AB
:100E60000800F200652FC0308312031386008D2F17
:100E7000F9308312031386008D2FA43083120313DD
:100E800086008D2FB0308312031386008D2F99308A
:100E90008312031386008D2F923083120313860072
:100EA0008D2F82308312031386008D2FF83083122A
:100EB000031386008D2F80308312031386008D2F3D
:100EC00090308312031386008D2F7208F000F10119
:100ED0007108003A03196D2F8D2F7008003A03191D
:100EE000332F013A0319382F033A03193D2F013AE2
:100EF0000319422F073A0319472F013A03194C2FC0
:100F0000033A0319512F013A0319562F0F3A0319C7
:100F10005B2F013A0319602F8D2F0800F601F11F96
:100F2000922F932F9A2FF009F109F00A0319F10A71
:100F3000F601F60AF31F9D2F9E2FA72FF209F30942
:100F4000F20A0319F30A0130F4007408F606F701F7
:100F5000F801700871040319AE2FAF2FE62FF501C9
:100F6000F50ABD2F01300310F00DF10DFF3E031DFA
:100F7000B32F0130F4007408F507F11FC02FC12F03
:100F8000B22F01300310F70DF80DFF3E031DC22FE5
:100F900071087302031DCE2F70087202031CD12F3B
:100FA000D22FD92F7008F2027108031CF303F30249
:100FB000771401300310F10CF00CFF3E031DDA2F03
:100FC0000130F502031DE52FE62FC12F7608031926
:100FD000EA2FEB2FF02FF709F809F70A0319F80A9F
:100FE0007808F1007708F000080083120313A001CD
:100FF000A101A201A301A401A501A6018301192D4C
:02400E00183F59
:00000001FF
